:020000040800F2
:100000000028002055110008E5100008EB1000083A
:10001000F1100008F7100008FD10000800000000B3
:1000200000000000000000000000000003110008B4
:100030000F110008000000001B1100082711000824
:100040009D1100089D1100089D1100089D110008D8
:100050009D1100089D1100089D1100089D110008C8
:100060009D1100089D1100089D1100089D110008B8
:100070009D1100089D1100089D1100089D110008A8
:100080009D1100089D1100089D1100089D11000898
:100090009D1100089D1100089D1100089D11000888
:1000A0009D1100089D1100089D1100089D11000878
:1000B000351100089D110008000000009D11000886
:1000C0009D11000800000000000000009D110008C4
:1000D000000000009D1100089D11000800000000B4
:1000E0009D1100089D1100089D11000800000000EE
:1000F0000000000000000000000000000000000000
:0C01000000000000000000005FF808F1A3
:10010C0010B5054C237833B9044B13B10448AFF345
:10011C0000800123237010BD54000020000000005B
:10012C00C427000808B5034B1BB103490348AFF3C0
:10013C00008008BD0000000058000020C427000803
:10014C0080B500AF164B1B684D2B02D04E2B11D037
:10015C0024E000222021134801F01DFB124B1B68E8
:10016C00012B18D10E4B4E221A604FF47A7000F00E
:10017C0015FF10E0012220210A4801F00CFB0A4B6C
:10018C001B68012B09D1064B4D221A604FF47A7073
:10019C0000F004FF01E000BF00E000BF00BF80BD25
:1001AC009400002000080140A000002080B400AFA3
:1001BC00064B1B68012B04D1044B00221A6001234F
:1001CC0000E000231846BD4680BC7047700000203C
:1001DC0080B400AF034B01221A6000BFBD4680BC47
:1001EC00704700BF7000002080B500AF1F4B1B682C
:1001FC001F4A13601F4B1B681C4A13604FF40051BD
:10020C001D4801F0B1FA03461A461A4B1A60184BF6
:10021C001A68164B1B689A4225D1144B1A68154B59
:10022C001B689A421FD1154B1A68124B1B689A42D5
:10023C000DD0104B1B68114A13600E4B1B68002B22
:10024C0011D1FFF7C5FF0E4BC8221A600BE00C4B07
:10025C001B68013B0A4A1360094B1B68002B02D137
:10026C00064B01221A6000BF80BD00BF04000020B5
:10027C000000002008000020001001400C000020AD
:10028C001000002080B400AF064B1B68012B04D17A
:10029C00044B00221A60012300E000231846BD46DF
:1002AC0080BC70477400002080B400AF034B012267
:1002BC001A6000BFBD4680BC704700BF74000020B0
:1002CC0080B400AF064B1B68012B04D1044B0022F9
:1002DC001A60012300E000231846BD4680BC70471D
:1002EC007800002080B400AF034B01221A6000BFDD
:1002FC00BD4680BC704700BF7800002080B400AFC2
:10030C00064B1B68012B04D1044B00221A600123FD
:10031C0000E000231846BD4680BC70477C000020DE
:10032C0080B400AF034B01221A6000BFBD4680BCF5
:10033C00704700BF7C00002080B500AF2D4B1B68C0
:10034C002D4A13602D4B1B682A4A13604FF48041D1
:10035C002B4801F009FA03461A46284B1A60264B23
:10036C001A68244B1B689A4242D1224B1A68234BC1
:10037C001B689A423CD1234B1A68204B1B689A424B
:10038C0011D01E4B1B681F4A13601C4B1B68002BA3
:10039C002ED1FFF789FF1C4B4FF496721A601B4B42
:1003AC0064221A6024E0194B1B68013B174A136046
:1003BC00164B1B68002B08D1104B1B68002B01D16E
:1003CC00FFF7AEFF114B64221A600F4B1B68013B09
:1003DC000D4A13600C4B1B68002B09D1074B1B6893
:1003EC00002B01D1FFF77EFF074B4FF496721A607A
:1003FC0000BF80BD18000020140000201C0000204D
:10040C0000100140200000202400002028000020C3
:10041C0080B400AF064B1B68012B04D1044B0022A7
:10042C001A60012300E000231846BD4680BC7047CB
:10043C008000002080B400AF034B01221A6000BF83
:10044C00BD4680BC704700BF8000002080B400AF68
:10045C00064B1B68012B04D1044B00221A600123AC
:10046C0000E000231846BD4680BC70478400002085
:10047C0080B400AF034B01221A6000BFBD4680BCA4
:10048C00704700BF8400002080B400AF064B1B688F
:10049C00012B04D1044B00221A60012300E000233D
:1004AC001846BD4680BC70478800002080B400AF61
:1004BC00034B01221A6000BFBD4680BC704700BFD1
:1004CC008800002080B500AF2D4B1B682D4A1360AF
:1004DC002D4B1B682A4A13604FF400412B4801F046
:1004EC0043F903461A46284B1A60264B1A68244BCC
:1004FC001B689A4242D1224B1A68234B1B689A42C2
:10050C003CD1234B1A68204B1B689A4211D01E4BCE
:10051C001B681F4A13601C4B1B68002B2ED1FFF766
:10052C0089FF1C4B4FF496721A601B4B64221A60A5
:10053C0024E0194B1B68013B174A1360164B1B68D0
:10054C00002B08D1104B1B68002B01D1FFF7AEFF1D
:10055C00114B64221A600F4B1B68013B0D4A136050
:10056C000C4B1B68002B09D1074B1B68002B01D1CE
:10057C00FFF77EFF074B4FF496721A6000BF80BDE9
:10058C00300000202C00002034000020001001401E
:10059C00380000203C0000204000002080B582B0D4
:1005AC0000AF78607B68002B22D100220121BD486E
:1005BC0001F0F1F800220221BA4801F0ECF8002217
:1005CC000421B84801F0E7F800220821B54801F0F1
:1005DC00E2F800221021B34801F0DDF800222021BE
:1005EC00B04801F0D8F801224021AE4801F0D3F810
:1005FC007B68012B22D101220121AA4801F0CBF802
:10060C0000220221A74801F0C6F800220421A548C7
:10061C0001F0C1F801220821A24801F0BCF8012226
:10062C001021A04801F0B7F8012220219D4801F0CB
:10063C00B2F8012240219B4801F0ADF87B68022BF7
:10064C0022D100220121974801F0A5F800220221B5
:10065C00944801F0A0F801220421924801F09BF883
:10066C00002208218F4801F096F8002210218D48B5
:10067C0001F091F8012220218A4801F08CF8002227
:10068C004021884801F087F87B68032B22D1002297
:10069C000121844801F07FF800220221814801F0F9
:1006AC007AF8002204217F4801F075F80022082115
:1006BC007C4801F070F8012210217A4801F06BF8A7
:1006CC0001222021774801F066F80022402175486C
:1006DC0001F061F87B68042B22D1012201217148C1
:1006EC0001F059F8002202216E4801F054F8002262
:1006FC0004216C4801F04FF801220821694801F0EF
:10070C004AF801221021674801F045F80022202107
:10071C00644801F040F800224021624801F03BF8A7
:10072C007B68052B22D1002201215E4801F033F8B1
:10073C00012202215B4801F02EF8002204215948C5
:10074C0001F029F800220821564801F024F8012272
:10075C001021544801F01FF800222021514801F0CB
:10076C001AF8002240214F4801F015F87B68062B3F
:10077C0022D1002201214B4801F00DF80122022167
:10078C00484801F008F800220421464801F003F81B
:10079C0000220821434800F0FEFF002210214148AE
:1007AC0000F0F9FF002220213E4800F0F4FF002267
:1007BC0040213C4800F0EFFF7B68072B22D1002240
:1007CC000121384800F0E7FF00220221354800F0F3
:1007DC00E2FF00220421334800F0DDFF0122082152
:1007EC00304800F0D8FF012210212E4800F0D3FF32
:1007FC00012220212B4800F0CEFF01224021294864
:10080C0000F0C9FF7B68082B22D10022012125486A
:10081C0000F0C1FF00220221224800F0BCFF0022A0
:10082C000421204800F0B7FF002208211D4800F0E9
:10083C00B2FF002210211B4800F0ADFF0022202146
:10084C00184800F0A8FF00224021164800F0A3FF32
:10085C007B68092B22D100220121124800F09BFF5A
:10086C00002202210F4800F096FF002204210D48BF
:10087C0000F091FF002208210A4800F08CFF0122B1
:10088C001021084800F087FF00222021054800F0C5
:10089C0082FF00224021034800F07DFF00BF083793
:1008AC00BD4680BD000C014080B500AFA04B1B685D
:1008BC00392B00F0D280392B00F36981372B02D011
:1008CC00382B5FD063E19B4B1B681846FFF766FE25
:1008DC00994B1B68012B0AD1964B1B68002B06D039
:1008EC00934B38221A604FF47A7000F03DFBFFF7FF
:1008FC005DFC0346012B09D18D4B37221A608D4BC1
:10090C0000221A6042F2107000F02EFBFFF7BAFCC6
:10091C000346012B17D1864B39221A60854B1B6875
:10092C00082B05DC834B1B680133824A136006E0FD
:10093C00804B1B68092B02D17E4B00221A6042F2BD
:10094C00107000F011FBFFF763FD0346012B40F024
:10095C002081774B39221A60764B1B68002B05DD02
:10096C00744B1B68013B734A136006E0714B1B68A8
:10097C00002B02D16F4B09221A6042F2107000F06A
:10098C00F3FA06E16B4B1B681846FFF707FE694B41
:10099C001B68002B06D1664B37221A6042F210708E
:1009AC0000F0E2FA644B1B68012B0BD1604B382230
:1009BC001A60604B1B68013B5E4A13604FF47A70FF
:1009CC0000F0D2FAFFF7F2FB0346012B09D1584B8A
:1009DC0039221A60574B00221A6042F2107000F054
:1009EC00C3FAFFF74FFC0346012B17D1504B3922AA
:1009FC001A60504B1B68082B05DC4E4B1B680133EF
:100A0C004C4A136006E04B4B1B68092B02D1494B37
:100A1C0000221A6042F2107000F0A6FAFFF7F8FC00
:100A2C000346012B40F0B780414B39221A60414BF1
:100A3C001B68002B05DD3F4B1B68013B3D4A1360D7
:100A4C0006E03C4B1B68002B02D13A4B09221A6082
:100A5C0042F2107000F088FA9DE0364B1B68184685
:100A6C00FFF79CFD344B1B68012B06D1304B382211
:100A7C001A604FF47A7000F077FAFFF797FB034691
:100A8C00012B09D12A4B39221A602A4B00221A60F9
:100A9C0042F2107000F068FAFFF7F4FB0346012BEA
:100AAC0017D1234B39221A60224B1B68082B05DC0B
:100ABC00204B1B6801331F4A136006E01D4B1B685B
:100ACC00092B02D11B4B00221A6042F2107000F06D
:100ADC004BFAFFF79DFC0346012B17D1144B39221F
:100AEC001A60144B1B68002B05DD124B1B68013B75
:100AFC00104A136006E00F4B1B68002B02D10D4B04
:100B0C0009221A6042F2107000F02EFAFFF7D8FB9F
:100B1C000346012B1DD1064B3A221A60054B1B686C
:100B2C00082B0BDC034B1B680133024A13600CE0EF
:100B3C008C0000209000002098000020184B1B68AF
:100B4C00092B02D1164B00221A6042F2107000F0F1
:100B5C000BFAFFF77BFC0346012B1ED1114B3A22FB
:100B6C001A600F4B1B68002B05DD0D4B1B68013BFE
:100B7C000B4A136006E00A4B1B68002B02D1084B92
:100B8C0009221A6042F2107000F0EEF905E000BF85
:100B9C0004E000BF02E000BF00E000BF00BF80BD6A
:100BAC00900000208C00002080B500AF4E4B1B68DD
:100BBC003A2B40F094804D4B1B681846FFF7EEFC27
:100BCC004B4B1B68012B06D1474B38221A604FF454
:100BDC007A7000F0C9F9FFF7E9FA0346012B09D145
:100BEC00414B39221A60414B00221A6042F21070BC
:100BFC0000F0BAF9FFF746FB0346012B17D13A4B2D
:100C0C0039221A60394B1B68082B05DC374B1B68E3
:100C1C000133364A136006E0344B1B68092B02D1B2
:100C2C00324B00221A6042F2107000F09DF9FFF76F
:100C3C00EFFB0346012B17D12B4B39221A602B4BA0
:100C4C001B68002B05DD294B1B68013B274A1360F1
:100C5C0006E0264B1B68002B02D1244B09221A609C
:100C6C0042F2107000F080F9FFF748FB0346012BAD
:100C7C0017D11D4B3A221A601C4B1B68082B05DC44
:100C8C001A4B1B680133194A136006E0174B1B689B
:100C9C00092B02D1154B00221A6042F2107000F0A1
:100CAC0063F9FFF7F1FB0346012B1AD10E4B3A22E5
:100CBC001A600E4B1B68002B05DD0C4B1B68013BAF
:100CCC000A4A136006E0094B1B68002B02D1074B44
:100CDC0009221A6042F2107000F046F901E000BFE0
:100CEC0000E000BF00BF80BD8C0000209000002001
:100CFC009800002080B500AF00F04CFA00F028F806
:100D0C0000F0AEF800F060F80D4801F095F90D4BCD
:100D1C0009221A600C4B37221A600C4B4D221A60B8
:100D2C004FF47A7000F03AF942F2107000F01CF9AE
:100D3C00FFF706FAFFF7B8FDFFF736FFF8E700BF3D
:100D4C00A8000020900000208C00002094000020BF
:100D5C0080B590B000AF07F1180328220021184687
:100D6C0001F022FD3B1D00221A605A609A60DA6085
:100D7C001A610223BB610123BB621023FB620023B7
:100D8C007B6307F11803184600F01EFD0346002B89
:100D9C0001D000F0E3F80F237B600023BB6000233D
:100DAC00FB6000233B6100237B613B1D0021184647
:100DBC0000F08AFF0346002B01D000F0CFF800BFF3
:100DCC004037BD4680BD000080B586B000AF07F14E
:100DDC00080300221A605A609A60DA603B460022CF
:100DEC001A605A601D4B4FF080421A601B4B41F643
:100DFC003F725A60194B00229A60184B0922DA6034
:100E0C00164B00221A61154B00229A61134801F00F
:100E1C00C3F80346002B01D000F0A0F84FF4805328
:100E2C00BB6007F1080319460C4801F059FA034658
:100E3C00002B01D000F092F800233B6000237B6074
:100E4C003B461946054801F021FC0346002B01D016
:100E5C0000F084F800BF1837BD4680BDA800002004
:100E6C0080B588B000AF07F1100300221A605A60F9
:100E7C009A60DA602D4B9B692C4A43F01003936106
:100E8C002A4B9B6903F01003FB60FB68274B9B69A3
:100E9C00264A43F004039361244B9B6903F004033B
:100EAC00BB60BB68214B9B69204A43F008039361EC
:100EBC001E4B9B6903F008037B607B68002220219A
:100ECC001B4800F068FC00227F211A4800F063FCEC
:100EDC004FF460433B6100237B610123BB6107F14D
:100EEC0010031946144800F0C5FA20233B61012376
:100EFC007B610023BB610223FB6107F110031946E0
:100F0C000B4800F0B7FA7F233B6101237B61002380
:100F1C00BB610223FB6107F110031946054800F081
:100F2C00A9FA00BF2037BD4680BD00BF00100240AB
:100F3C0000080140000C01400010014080B582B057
:100F4C0000AF786000F044F8FFF74EF9FFF7F4F9C2
:100F5C00FFF7B8FA00BF0837BD4680BD80B400AFBC
:100F6C0072B600BFFEE7000080B483B000AF7860BB
:100F7C00074B1B687A6892FBF3F3064A1360064B27
:100F8C0000221A6000BF0C37BD4680BC704700BF02
:100F9C00440000209C0000209800002080B483B006
:100FAC0000AF7860074B1B687A6892FBF3F3064A34
:100FBC001360064B00221A6000BF0C37BD4680BC84
:100FCC00704700BF44000020A4000020A0000020B7
:100FDC0080B400AF114B1B68002B0BDD0F4B1B6853
:100FEC00013B0E4A13600D4B1B68002B02D10C4BBE
:100FFC0001221A600B4B1B68002B0BDD094B1B6885
:10100C00013B084A1360074B1B68002B02D1064BAF
:10101C0001221A6000BFBD4680BC70479C000020B6
:10102C0098000020A4000020A000002080B485B00F
:10103C0000AF154B9B69144A43F001039361124BAB
:10104C009B6903F00103BB60BB680F4BDB690E4A65
:10105C0043F08053D3610C4BDB6903F080537B600E
:10106C007B680A4B5B68FB60FB6823F0E063FB600A
:10107C00FB6843F08063FB60044AFB68536000BF6D
:10108C001437BD4680BC7047001002400000014080
:10109C0080B584B000AF78607B681B68B3F1804F7B
:1010AC0013D10C4BDB690B4A43F00103D361094BA1
:1010BC00DB6903F00103FB60FB68002200211C20AC
:1010CC0000F0A1F91C2000F0BAF900BF1037BD46A2
:1010DC0080BD00BF0010024080B400AFFEE780B4BA
:1010EC0000AFFEE780B400AFFEE780B400AFFEE7D0
:1010FC0080B400AFFEE780B400AF00BFBD4680BC3B
:10110C00704780B400AF00BFBD4680BC704780B450
:10111C0000AF00BFBD4680BC704780B500AF00F08B
:10112C007FF800BF80BD000080B500AF024800F022
:10113C00CFFF00BF80BD00BFA800002080B400AF6F
:10114C0000BFBD4680BC70470C480D490D4A0023BA
:10115C0002E0D458C4500433C4188C42F9D30A4A60
:10116C000A4C002301E013600432A242FBD3FFF7C8
:10117C00E5FF01F0F5FAFFF7BDFD70470000002018
:10118C00540000200428000854000020F400002023
:10119C00FEE7000080B500AF084B1B68074A43F020
:1011AC0010031360032000F023F90F2000F008F85F
:1011BC00FFF73CFF0023184680BD00BF0020024013
:1011CC0080B582B000AF7860124B1A68124B1B7856
:1011DC0019464FF47A73B3FBF1F3B2FBF3F31846F1
:1011EC0000F03BF90346002B01D001230EE07B6895
:1011FC000F2B0AD8002279684FF0FF3000F003F96A
:10120C00064A7B681360002300E001231846083768
:10121C00BD4680BD48000020500000204C0000203E
:10122C0080B400AF054B1B781A46054B1B68134462
:10123C00034A136000BFBD4680BC704750000020BD
:10124C00F000002080B400AF024B1B681846BD466E
:10125C0080BC7047F000002080B485B000AF78608F
:10126C007B6803F00703FB600C4BDB68BB60BA6860
:10127C004FF6FF031340BB60FB681A02BB681343B5
:10128C0043F0BF6343F40033BB60044ABB68D360D4
:10129C0000BF1437BD4680BC704700BF00ED00E0B6
:1012AC0080B400AF044BDB681B0A03F0070318463D
:1012BC00BD4680BC704700BF00ED00E080B483B039
:1012CC0000AF0346FB7197F90730002B0BDBFB7962
:1012DC0003F01F02064997F907305B09012000FA59
:1012EC0002F241F8232000BF0C37BD4680BC70478A
:1012FC0000E100E080B483B000AF03463960FB71BD
:10130C0097F90730002B0ADB3B68DAB20C4997F9E6
:10131C0007301201D2B20B4483F800230AE03B6879
:10132C00DAB20849FB7903F00F03043B1201D2B285
:10133C000B441A7600BF0C37BD4680BC704700BF0B
:10134C0000E100E000ED00E080B489B000AFF8608F
:10135C00B9607A60FB6803F00703FB61FB69C3F1BA
:10136C000703042B28BF0423BB61FB690433062B42
:10137C0002D9FB69033B00E000237B614FF0FF3295
:10138C00BB6902FA03F3DA43BB681A407B699A40E3
:10139C004FF0FF317B6901FA03F3D9437B680B40B3
:1013AC00134318462437BD4680BC704780B582B0C5
:1013BC0000AF78607B68013BB3F1807F01D30123E0
:1013CC000FE00A4A7B68013B53600F214FF0FF305E
:1013DC00FFF790FF054B00229A60044B07221A601E
:1013EC00002318460837BD4680BD00BF10E000E062
:1013FC0080B582B000AF78607868FFF72DFF00BF32
:10140C000837BD4680BD80B586B000AF0346B960D5
:10141C007A60FB7300237B61FFF742FF78617A6887
:10142C00B9687869FFF790FF024697F90F301146BB
:10143C001846FFF75FFF00BF1837BD4680BD80B56B
:10144C0082B000AF0346FB7197F907301846FFF7DF
:10145C0035FF00BF0837BD4680BD80B582B000AFF8
:10146C0078607868FFF7A2FF034618460837BD4638
:10147C0080BD000080B48BB000AF78603960002371
:10148C007B6200233B6248E101227B6A02FA03F390
:10149C00FB613B681B68FA691340BB61BA69FB6965
:1014AC009A4240F037813B685B68A34A93425ED016
:1014BC00A14A934275D8A14A934258D09F4A93426D
:1014CC006FD89F4A934252D09D4A934269D89D4A05
:1014DC0093424CD09B4A934263D89B4A934246D04A
:1014EC00994A93425DD8122B2AD8122B59D801A2B3
:1014FC0052F823F07B1500085515000867150008F5
:10150C00A9150008AF150008AF150008AF150008A5
:10151C00AF150008AF150008AF150008AF1500088F
:10152C00AF150008AF150008AF150008AF1500087F
:10153C00AF150008AF1500085D15000871150008FF
:10154C00824A934213D02CE03B68DB683B6229E073
:10155C003B68DB6804333B6224E03B68DB680833A0
:10156C003B621FE03B68DB680C333B621AE03B6874
:10157C009B68002B02D104233B6213E03B689B6801
:10158C00012B05D108233B627B68FA691A6109E0DB
:10159C0008233B627B68FA695A6103E000233B62D3
:1015AC0000E000BFBB69FF2B01D87B6801E07B68C2
:1015BC0004337B61BB69FF2B02D87B6A9B0002E082
:1015CC007B6A083B9B003B617B691A680F213B6976
:1015DC0001FA03F3DB431A40396A3B6901FA03F35E
:1015EC001A437B691A603B685B6803F08053002BDD
:1015FC0000F09080564B9B69554A43F00103936170
:10160C00534B9B6903F00103BB60BB68514A7B6A77
:10161C009B08023352F82330FB607B6A03F0030310
:10162C009B000F2202FA03F3DB43FA681340FB60C2
:10163C007B68494A93420DD07B68484A934207D055
:10164C007B68474A934201D1022304E0032302E062
:10165C00012300E000237A6A02F003029200934017
:10166C00FA681343FB603B497B6A9B080233FA68B8
:10167C0041F823203B685B6803F48033002B06D0D1
:10168C00384B1A683749BB6913430B6006E0354B7E
:10169C001A68BB69DB43334913400B603B685B68DA
:1016AC0003F40033002B06D02E4B5A682D49BB692E
:1016BC0013434B6006E02B4B5A68BB69DB4329494B
:1016CC0013404B603B685B6803F48013002B06D01F
:1016DC00244B9A682349BB6913438B6006E0214B6A
:1016EC009A68BB69DB431F4913408B603B685B689E
:1016FC0003F40013002B06D01A4BDA681949BB69A6
:10170C001343CB6006E0174BDA68BB69DB43154922
:10171C001340CB607B6A01337B623B681A687B6A3F
:10172C0022FA03F3002B7FF4AFAE00BF00BF2C37BF
:10173C00BD4680BC704700BF000032100000311065
:10174C0000002210000021100000121000001110E7
:10175C00001002400000014000080140000C014054
:10176C00001001400004014080B485B000AF7860E7
:10177C000B467B807B689A687B881340002B02D0D9
:10178C000123FB7301E00023FB73FB7B184614372A
:10179C00BD4680BC704780B483B000AF78600B4608
:1017AC007B8013467B707B78002B03D07A887B6818
:1017BC001A6103E07B881A047B681A6100BF0C373E
:1017CC00BD4680BC7047000080B586B000AF786025
:1017DC007B68002B01D101236CE27B681B6803F052
:1017EC000103002B00F08780924B5B6803F00C0325
:1017FC00042B0CD08F4B5B6803F00C03082B12D11D
:10180C008C4B5B6803F48033B3F5803F0BD1894B71
:10181C001B6803F40033002B6CD07B685B68002BD7
:10182C0068D1012346E27B685B68B3F5803F06D143
:10183C00804B1B687F4A43F4803313602EE07B6837
:10184C005B68002B0CD17B4B1B687A4A23F48033EA
:10185C001360784B1B68774A23F4802313601DE0D8
:10186C007B685B68B3F5A02F0CD1724B1B68714A77
:10187C0043F4802313606F4B1B686E4A43F4803330
:10188C0013600BE06B4B1B686A4A23F480331360C4
:10189C00684B1B68674A23F4802313607B685B6882
:1018AC00002B13D0FFF7CEFC386108E0FFF7CAFC21
:1018BC0002463B69D31A642B01D90323FAE15D4B31
:1018CC001B6803F40033002BF0D014E0FFF7BAFCD4
:1018DC00386108E0FFF7B6FC02463B69D31A642B6B
:1018EC0001D90323E6E1534B1B6803F40033002BAF
:1018FC00F0D100E000BF7B681B6803F00203002BF3
:10190C0063D04C4B5B6803F00C03002B0BD0494BA2
:10191C005B6803F00C03082B1CD1464B5B6803F48B
:10192C008033002B16D1434B1B6803F00203002BB2
:10193C0005D07B681B69012B01D00123BAE13D4B1B
:10194C001B6823F0F8027B685B69DB0039491343A1
:10195C000B603AE07B681B69002B20D0364B0122D0
:10196C001A60FFF76FFC386108E0FFF76BFC02466A
:10197C003B69D31A022B01D903239BE12D4B1B6826
:10198C0003F00203002BF0D02A4B1B6823F0F80263
:10199C007B685B69DB00274913430B6015E0264B22
:1019AC0000221A60FFF74EFC386108E0FFF74AFC92
:1019BC0002463B69D31A022B01D903237AE11D4B52
:1019CC001B6803F00203002BF0D17B681B6803F04B
:1019DC000803002B3AD07B689B69002B19D0174B5E
:1019EC0001221A60FFF72EFC386108E0FFF72AFC91
:1019FC0002463B69D31A022B01D903235AE10D4B42
:101A0C005B6A03F00203002BF0D0012000F0A6FA71
:101A1C001CE00A4B00221A60FFF714FC38610FE03F
:101A2C00FFF710FC02463B69D31A022B08D903239B
:101A3C0040E100BF001002400000424280044242DC
:101A4C009E4B5B6A03F00203002BE9D17B681B6899
:101A5C0003F00403002B00F0A6800023FB75974BCA
:101A6C00DB6903F08053002B0DD1944BDB69934A57
:101A7C0043F08053D361914BDB6903F08053BB601F
:101A8C00BB680123FB758E4B1B6803F48073002B22
:101A9C0018D18B4B1B688A4A43F480731360FFF791
:101AAC00D1FB386108E0FFF7CDFB02463B69D31A46
:101ABC00642B01D90323FDE0814B1B6803F4807375
:101ACC00002BF0D07B68DB68012B06D17B4B1B6AAB
:101ADC007A4A43F0010313622DE07B68DB68002B2C
:101AEC000CD1764B1B6A754A23F001031362734BBE
:101AFC001B6A724A23F0040313621CE07B68DB68E8
:101B0C00052B0CD16D4B1B6A6C4A43F0040313621A
:101B1C006A4B1B6A694A43F0010313620BE0674B83
:101B2C001B6A664A23F001031362644B1B6A634A07
:101B3C0023F0040313627B68DB68002B15D0FFF7DE
:101B4C0081FB38610AE0FFF77DFB02463B69D31A43
:101B5C0041F28832934201D90323ABE0574B1B6A05
:101B6C0003F00203002BEED014E0FFF76BFB38619F
:101B7C000AE0FFF767FB02463B69D31A41F2883251
:101B8C00934201D9032395E04C4B1B6A03F00203EB
:101B9C00002BEED1FB7D012B05D1484BDB69474A6D
:101BAC0023F08053D3617B68DB69002B00F08180CC
:101BBC00424B5B6803F00C03082B61D07B68DB693C
:101BCC00022B46D13F4B00221A60FFF73BFB3861DA
:101BDC0008E0FFF737FB02463B69D31A022B01D909
:101BEC00032367E0354B1B6803F00073002BF0D127
:101BFC007B681B6AB3F5803F08D1304B5B6823F4DC
:101C0C0000327B689B682D4913434B602B4B5B6800
:101C1C0023F474127B68196A7B685B6A0B4327494F
:101C2C0013434B60274B01221A60FFF70BFB386103
:101C3C0008E0FFF707FB02463B69D31A022B01D9D8
:101C4C00032337E01D4B1B6803F00073002BF0D00F
:101C5C002FE01C4B00221A60FFF7F4FA386108E001
:101C6C00FFF7F0FA02463B69D31A022B01D9032382
:101C7C0020E0124B1B6803F00073002BF0D118E02E
:101C8C007B68DB69012B01D1012313E00B4B5B68F3
:101C9C00FB60FB6803F480327B681B6A9A4206D1B6
:101CAC00FB6803F470127B685B6A9A4201D00123D3
:101CBC0000E0002318461837BD4680BD00100240D6
:101CCC00007000406000424280B584B000AF786084
:101CDC0039607B68002B01D10123D0E06A4B1B6873
:101CEC0003F007033A689A4210D9674B1B6823F03C
:101CFC00070265493B6813430B60634B1B6803F099
:101D0C0007033A689A4201D00123B8E07B681B684C
:101D1C0003F00203002B20D07B681B6803F0040344
:101D2C00002B05D0594B5B68584A43F4E063536071
:101D3C007B681B6803F00803002B05D0534B5B68D2
:101D4C00524A43F460535360504B5B6823F0F002EB
:101D5C007B689B684D4913434B607B681B6803F0A1
:101D6C000103002B40D07B685B68012B07D1474BEC
:101D7C001B6803F40033002B15D101237FE07B6833
:101D8C005B68022B07D1414B1B6803F00073002BDF
:101D9C0009D1012373E03D4B1B6803F00203002BB8
:101DAC0001D101236BE0394B5B6823F003027B68A4
:101DBC005B68364913434B60FFF744FAF8600AE05E
:101DCC00FFF740FA0246FB68D31A41F2883293427D
:101DDC0001D9032353E02D4B5B6803F00C027B68A5
:101DEC005B689B009A42EBD1274B1B6803F00703FF
:101DFC003A689A4210D2244B1B6823F007022249FE
:101E0C003B6813430B60204B1B6803F007033A68D5
:101E1C009A4201D0012332E07B681B6803F0040373
:101E2C00002B08D0194B5B6823F4E0627B68DB68FD
:101E3C00164913434B607B681B6803F00803002BA7
:101E4C0009D0124B5B6823F460527B681B69DB0082
:101E5C000E4913434B6000F021F802460B4B5B68B4
:101E6C001B0903F00F030A49CB5C22FA03F3094A5E
:101E7C001360094B1B681846FFF7A2F9002318469C
:101E8C001037BD4680BD00BF00200240001002404C
:101E9C00EC270008480000204C00002090B48AB0C9
:101EAC0000AF2A4B3C1D0FCB84E80F0040F20123FE
:101EBC003B800023FB610023BB6100237B6200237A
:101ECC007B6100233B62224B5B68FB61FB6903F087
:101EDC000C03042B02D0082B03D02DE01D4B3B62CE
:101EEC002DE0FB699B0C03F00F0307F12802134450
:101EFC0013F8243C7B61FB6903F48033002B13D073
:101F0C00134B5B685B0C03F0010307F128021344CD
:101F1C0013F8283CBB617B690E4A02FB03F2BB69D8
:101F2C00B2FBF3F37B6204E07B690B4A02FB03F325
:101F3C007B627B6A3B6202E0064B3B6200BF3B6A02
:101F4C0018462837BD4690BC704700BFDC270008F8
:101F5C000010024000127A0000093D0080B485B0E8
:101F6C0000AF78600A4B1B680A4AA2FB03235B0A8A
:101F7C007A6802FB03F3FB6000BFFB685A1EFA6031
:101F8C00002BF9D100BF00BF1437BD4680BC704791
:101F9C0048000020D34D621080B582B000AF78604D
:101FAC007B68002B01D1012341E07B6893F83D3025
:101FBC00DBB2002B06D17B68002283F83C207868CA
:101FCC00FFF766F87B68022283F83D207B681A686D
:101FDC007B6804331946104600F06AFA7B680122CC
:101FEC0083F846207B68012283F83E207B6801221F
:101FFC0083F83F207B68012283F840207B68012214
:10200C0083F841207B68012283F842207B680122FF
:10201C0083F843207B68012283F844207B680122EB
:10202C0083F845207B68012283F83D200023184665
:10203C000837BD4680BD000080B485B000AF786025
:10204C007B6893F83D30DBB2012B01D0012335E0E6
:10205C007B68022283F83D207B681B68DA687B680A
:10206C001B6842F00102DA607B681B68164A9342D7
:10207C0009D07B681B68B3F1804F04D07B681B6868
:10208C00124A934211D17B681B689B6803F00703CB
:10209C00FB60FB68062B10D07B681B681A687B689A
:1020AC001B6842F001021A6007E07B681B681A6823
:1020BC007B681B6842F001021A6000231846143733
:1020CC00BD4680BC704700BF002C0140000400409E
:1020DC0080B582B000AF78607B681B681B6903F029
:1020EC000203022B22D17B681B68DB6803F002031E
:1020FC00022B1BD17B681B686FF002021A617B6894
:10210C0001221A777B681B689B6903F00303002B81
:10211C0003D0786800F0B1F905E0786800F0A4F914
:10212C00786800F0B3F97B6800221A777B681B682B
:10213C001B6903F00403042B22D17B681B68DB684A
:10214C0003F00403042B1BD17B681B686FF00402A3
:10215C001A617B6802221A777B681B689B6903F4FF
:10216C004073002B03D0786800F087F905E078689D
:10217C0000F07AF9786800F089F97B6800221A7708
:10218C007B681B681B6903F00803082B22D17B6852
:10219C001B68DB6803F00803082B1BD17B681B68EA
:1021AC006FF008021A617B6804221A777B681B683F
:1021BC00DB6903F00303002B03D0786800F05DF9B2
:1021CC0005E0786800F050F9786800F05FF97B68FA
:1021DC0000221A777B681B681B6903F01003102B15
:1021EC0022D17B681B68DB6803F01003102B1BD11A
:1021FC007B681B686FF010021A617B6808221A77E3
:10220C007B681B68DB6903F44073002B03D0786890
:10221C0000F033F905E0786800F026F9786800F0F2
:10222C0035F97B6800221A777B681B681B6903F001
:10223C000103012B0ED17B681B68DB6803F00103E3
:10224C00012B07D17B681B686FF001021A6178685B
:10225C00FEF774FE7B681B681B6903F08003802B00
:10226C000ED17B681B68DB6803F08003802B07D1E1
:10227C007B681B686FF080021A61786800F067FA5F
:10228C007B681B681B6903F04003402B0ED17B68F5
:10229C001B68DB6803F04003402B07D17B681B688D
:1022AC006FF040021A61786800F0F9F87B681B68DF
:1022BC001B6903F02003202B0ED17B681B68DB68A5
:1022CC0003F02003202B07D17B681B686FF02002E2
:1022DC001A61786800F032FA00BF0837BD4680BD3D
:1022EC0080B584B000AF786039607B6893F83C307F
:1022FC00012B01D10223B3E07B68012283F83C203F
:10230C007B68022283F83D207B681B689B68FB601E
:10231C00FB6823F07703FB60FB6823F47F43FB60CF
:10232C007B681B68FA689A603B681B68B3F5005FB2
:10233C003ED0B3F5005F00F28780B3F5805F00F00C
:10234C008580B3F5805F7FD8702B1AD0702B7BD82B
:10235C00602B50D0602B77D8502B3CD0502B73D89F
:10236C00402B58D0402B6FD8302B64D0302B6BD8EF
:10237C00202B60D0202B67D8002B5CD0102B5AD090
:10238C0062E07B6818683B6899683B685A683B68F0
:10239C00DB6800F05CF97B681B689B68FB60FB6882
:1023AC0043F07703FB607B681B68FA689A604EE029
:1023BC007B6818683B6899683B685A683B68DB68BF
:1023CC0000F045F97B681B689A687B681B6842F4CF
:1023DC0080429A603BE07B6818683B6859683B68B0
:1023EC00DB681A4600F0BCF87B681B685021184665
:1023FC0000F013F92BE07B6818683B6859683B6860
:10240C00DB681A4600F0DAF87B681B686021184616
:10241C0000F003F91BE07B6818683B6859683B685F
:10242C00DB681A4600F09CF87B681B684021184654
:10243C0000F0F3F80BE07B681A683B681B681946E0
:10244C00104600F0EAF802E000BF00E000BF7B6835
:10245C00012283F83D207B68002283F83C20002376
:10246C0018461037BD4680BD80B483B000AF78608D
:10247C0000BF0C37BD4680BC704780B483B000AF42
:10248C00786000BF0C37BD4680BC704780B483B009
:10249C0000AF786000BF0C37BD4680BC704780B47D
:1024AC0083B000AF786000BF0C37BD4680BC70476E
:1024BC0080B485B000AF786039607B681B68FB60C6
:1024CC007B68254A934207D07B68B3F1804F03D0D9
:1024DC007B68224A934208D1FB6823F07003FB60AF
:1024EC003B685B68FA681343FB607B681A4A93424B
:1024FC0007D07B68B3F1804F03D07B68174A9342B7
:10250C0008D1FB6823F44073FB603B68DB68FA6816
:10251C001343FB60FB6823F080023B685B69134349
:10252C00FB607B68FA681A603B689A687B68DA62C1
:10253C003B681A687B689A627B68074A934203D1AE
:10254C003B681A697B681A637B6801225A6100BF79
:10255C001437BD4680BC7047002C0140000400407D
:10256C0080B487B000AFF860B9607A60FB681B6A12
:10257C007B61FB681B6A23F00102FB681A62FB6833
:10258C009B693B613B6923F0F0033B617B681B015A
:10259C003A6913433B617B6923F00A037B617A69D7
:1025AC00BB6813437B61FB683A699A61FB687A6983
:1025BC001A6200BF1C37BD4680BC704780B487B020
:1025CC0000AFF860B9607A60FB681B6A23F01002F8
:1025DC00FB681A62FB689B697B61FB681B6A3B6149
:1025EC007B6923F470437B617B681B037A6913431B
:1025FC007B613B6923F0A0033B61BB681B013A691B
:10260C0013433B61FB687A699A61FB683A691A6209
:10261C0000BF1C37BD4680BC704780B485B000AF8E
:10262C00786039607B689B68FB60FB6823F0700303
:10263C00FB603A68FB68134343F00703FB607B685D
:10264C00FA689A6000BF1437BD4680BC704780B4EE
:10265C0087B000AFF860B9607A603B60FB689B683C
:10266C007B617B6923F47F437B613B681A027B6847
:10267C001A43BB6813437A6913437B61FB687A691D
:10268C009A6000BF1C37BD4680BC704780B485B0D3
:10269C0000AF786039607B6893F83C30012B01D136
:1026AC00022341E07B68012283F83C207B680222F4
:1026BC0083F83D207B681B685B68FB607B681B684C
:1026CC009B68BB60FB6823F07003FB603B681B6876
:1026DC00FA681343FB607B681B68FA685A607B6876
:1026EC001B68144A934209D07B681B68B3F1804F76
:1026FC0004D07B681B68104A93420CD1BB6823F052
:10270C008003BB603B685B68BA681343BB607B6843
:10271C001B68BA689A607B68012283F83D207B684D
:10272C00002283F83C20002318461437BD4680BC99
:10273C00704700BF002C01400004004080B483B0FF
:10274C0000AF786000BF0C37BD4680BC704780B4CA
:10275C0083B000AF786000BF0C37BD4680BC7047BB
:10276C0070B500260C4D0D4C641BA410A64209D16B
:10277C0000F022F800260A4D0A4C641BA410A64255
:10278C0005D170BD55F8043B98470136EEE755F876
:10279C00043B98470136F2E7FC270008FC270008A9
:1027AC00FC2700080028000803460244934200D18D
:1027BC00704703F8011BF9E7F8B500BFF8BC08BC7B
:1027CC009E467047F8B500BFF8BC08BC9E467047E3
:1027DC0002030405060708090A0B0C0D0E0F101056
:1027EC0000000000000000000102030406070809B5
:0427FC00310100089F
:042800000D010008BE
:1028040001000000010000000100000001000000C0
:10281400C8000000010000000100000001000000E9
:10282400010000002C010000640000000100000011
:102834000100000001000000010000002C01000064
:10284400640000000A0000000024F40010000000EE
:04285400010000007F
:040000050800115589
:00000001FF
